{
  "_format": "hh-sol-artifact-1",
  "contractName": "PlayGame",
  "sourceName": "contracts/PlayGame.sol",
  "abi": [
    {
      "inputs": [
        {
          "internalType": "address",
          "name": "_gameToken",
          "type": "address"
        }
      ],
      "stateMutability": "nonpayable",
      "type": "constructor"
    },
    {
      "inputs": [
        {
          "internalType": "address",
          "name": "owner",
          "type": "address"
        }
      ],
      "name": "OwnableInvalidOwner",
      "type": "error"
    },
    {
      "inputs": [
        {
          "internalType": "address",
          "name": "account",
          "type": "address"
        }
      ],
      "name": "OwnableUnauthorizedAccount",
      "type": "error"
    },
    {
      "inputs": [],
      "name": "ReentrancyGuardReentrantCall",
      "type": "error"
    },
    {
      "anonymous": false,
      "inputs": [
        {
          "indexed": true,
          "internalType": "bytes32",
          "name": "matchId",
          "type": "bytes32"
        },
        {
          "indexed": false,
          "internalType": "address",
          "name": "p1",
          "type": "address"
        },
        {
          "indexed": false,
          "internalType": "address",
          "name": "p2",
          "type": "address"
        },
        {
          "indexed": false,
          "internalType": "uint256",
          "name": "stake",
          "type": "uint256"
        }
      ],
      "name": "MatchCreated",
      "type": "event"
    },
    {
      "anonymous": false,
      "inputs": [
        {
          "indexed": true,
          "internalType": "address",
          "name": "previousOwner",
          "type": "address"
        },
        {
          "indexed": true,
          "internalType": "address",
          "name": "newOwner",
          "type": "address"
        }
      ],
      "name": "OwnershipTransferred",
      "type": "event"
    },
    {
      "anonymous": false,
      "inputs": [
        {
          "indexed": true,
          "internalType": "bytes32",
          "name": "matchId",
          "type": "bytes32"
        },
        {
          "indexed": false,
          "internalType": "address",
          "name": "p1",
          "type": "address"
        },
        {
          "indexed": false,
          "internalType": "address",
          "name": "p2",
          "type": "address"
        },
        {
          "indexed": false,
          "internalType": "uint256",
          "name": "amount",
          "type": "uint256"
        }
      ],
      "name": "Refunded",
      "type": "event"
    },
    {
      "anonymous": false,
      "inputs": [
        {
          "indexed": true,
          "internalType": "bytes32",
          "name": "matchId",
          "type": "bytes32"
        },
        {
          "indexed": false,
          "internalType": "address",
          "name": "winner",
          "type": "address"
        },
        {
          "indexed": false,
          "internalType": "uint256",
          "name": "amount",
          "type": "uint256"
        }
      ],
      "name": "Settled",
      "type": "event"
    },
    {
      "anonymous": false,
      "inputs": [
        {
          "indexed": true,
          "internalType": "bytes32",
          "name": "matchId",
          "type": "bytes32"
        },
        {
          "indexed": false,
          "internalType": "address",
          "name": "player",
          "type": "address"
        }
      ],
      "name": "Staked",
      "type": "event"
    },
    {
      "inputs": [],
      "name": "TIMEOUT_DURATION",
      "outputs": [
        {
          "internalType": "uint256",
          "name": "",
          "type": "uint256"
        }
      ],
      "stateMutability": "view",
      "type": "function"
    },
    {
      "inputs": [],
      "name": "backendOperator",
      "outputs": [
        {
          "internalType": "address",
          "name": "",
          "type": "address"
        }
      ],
      "stateMutability": "view",
      "type": "function"
    },
    {
      "inputs": [
        {
          "internalType": "bytes32",
          "name": "matchId",
          "type": "bytes32"
        },
        {
          "internalType": "address",
          "name": "winner",
          "type": "address"
        }
      ],
      "name": "commitResult",
      "outputs": [],
      "stateMutability": "nonpayable",
      "type": "function"
    },
    {
      "inputs": [
        {
          "internalType": "bytes32",
          "name": "matchId",
          "type": "bytes32"
        },
        {
          "internalType": "address",
          "name": "p1",
          "type": "address"
        },
        {
          "internalType": "address",
          "name": "p2",
          "type": "address"
        },
        {
          "internalType": "uint256",
          "name": "stake",
          "type": "uint256"
        }
      ],
      "name": "createMatch",
      "outputs": [],
      "stateMutability": "nonpayable",
      "type": "function"
    },
    {
      "inputs": [],
      "name": "gameToken",
      "outputs": [
        {
          "internalType": "contract IERC20",
          "name": "",
          "type": "address"
        }
      ],
      "stateMutability": "view",
      "type": "function"
    },
    {
      "inputs": [
        {
          "internalType": "bytes32",
          "name": "",
          "type": "bytes32"
        }
      ],
      "name": "matches",
      "outputs": [
        {
          "internalType": "address",
          "name": "p1",
          "type": "address"
        },
        {
          "internalType": "address",
          "name": "p2",
          "type": "address"
        },
        {
          "internalType": "uint256",
          "name": "stake",
          "type": "uint256"
        },
        {
          "internalType": "uint256",
          "name": "startTime",
          "type": "uint256"
        },
        {
          "internalType": "enum PlayGame.MatchStatus",
          "name": "status",
          "type": "uint8"
        },
        {
          "internalType": "bool",
          "name": "p1Staked",
          "type": "bool"
        },
        {
          "internalType": "bool",
          "name": "p2Staked",
          "type": "bool"
        }
      ],
      "stateMutability": "view",
      "type": "function"
    },
    {
      "inputs": [],
      "name": "owner",
      "outputs": [
        {
          "internalType": "address",
          "name": "",
          "type": "address"
        }
      ],
      "stateMutability": "view",
      "type": "function"
    },
    {
      "inputs": [
        {
          "internalType": "bytes32",
          "name": "matchId",
          "type": "bytes32"
        }
      ],
      "name": "refund",
      "outputs": [],
      "stateMutability": "nonpayable",
      "type": "function"
    },
    {
      "inputs": [],
      "name": "renounceOwnership",
      "outputs": [],
      "stateMutability": "nonpayable",
      "type": "function"
    },
    {
      "inputs": [
        {
          "internalType": "address",
          "name": "_backendOperator",
          "type": "address"
        }
      ],
      "name": "setBackendOperator",
      "outputs": [],
      "stateMutability": "nonpayable",
      "type": "function"
    },
    {
      "inputs": [
        {
          "internalType": "bytes32",
          "name": "matchId",
          "type": "bytes32"
        }
      ],
      "name": "stake",
      "outputs": [],
      "stateMutability": "nonpayable",
      "type": "function"
    },
    {
      "inputs": [
        {
          "internalType": "address",
          "name": "newOwner",
          "type": "address"
        }
      ],
      "name": "transferOwnership",
      "outputs": [],
      "stateMutability": "nonpayable",
      "type": "function"
    }
  ],
  "bytecode": "0x60a06040523480156200001157600080fd5b50604051620024dd380380620024dd833981810160405281019062000037919062000270565b33600073ffffffffffffffffffffffffffffffffffffffff168173ffffffffffffffffffffffffffffffffffffffff1603620000ad5760006040517f1e4fbdf7000000000000000000000000000000000000000000000000000000008152600401620000a49190620002b3565b60405180910390fd5b620000be816200014260201b60201c565b50600180819055508073ffffffffffffffffffffffffffffffffffffffff1660808173ffffffffffffffffffffffffffffffffffffffff168152505033600260006101000a81548173ffffffffffffffffffffffffffffffffffffffff021916908373ffffffffffffffffffffffffffffffffffffffff16021790555050620002d0565b60008060009054906101000a900473ffffffffffffffffffffffffffffffffffffffff169050816000806101000a81548173ffffffffffffffffffffffffffffffffffffffff021916908373ffffffffffffffffffffffffffffffffffffffff1602179055508173ffffffffffffffffffffffffffffffffffffffff168173ffffffffffffffffffffffffffffffffffffffff167f8be0079c531659141344cd1fd0a4f28419497f9722a3daafe3b4186f6b6457e060405160405180910390a35050565b600080fd5b600073ffffffffffffffffffffffffffffffffffffffff82169050919050565b600062000238826200020b565b9050919050565b6200024a816200022b565b81146200025657600080fd5b50565b6000815190506200026a816200023f565b92915050565b60006020828403121562000289576200028862000206565b5b6000620002998482850162000259565b91505092915050565b620002ad816200022b565b82525050565b6000602082019050620002ca6000830184620002a2565b92915050565b6080516121d5620003086000396000818161052201528181610c0801528181610d250152818161130f015261149e01526121d56000f3fe608060405234801561001057600080fd5b50600436106100b45760003560e01c80639fe9ada3116100715780639fe9ada314610151578063c0d64a8714610187578063c3dfdae6146101a3578063c7b6084c146101c1578063eaf7ac9f146101df578063f2fde38b146101fd576100b4565b806302262ced146100b9578063270ab7f5146100d55780633acb3700146100f1578063715018a61461010d5780637249fbb6146101175780638da5cb5b14610133575b600080fd5b6100d360048036038101906100ce9190611778565b610219565b005b6100ef60048036038101906100ea91906117db565b610265565b005b61010b60048036038101906101069190611851565b610672565b005b610115610a5c565b005b610131600480360381019061012c91906118b8565b610a70565b005b61013b610eea565b60405161014891906118f4565b60405180910390f35b61016b600480360381019061016691906118b8565b610f13565b60405161017e97969594939291906119b0565b60405180910390f35b6101a1600480360381019061019c91906118b8565b610fbc565b005b6101ab61149c565b6040516101b89190611a7e565b60405180910390f35b6101c96114c0565b6040516101d691906118f4565b60405180910390f35b6101e76114e6565b6040516101f49190611a99565b60405180910390f35b61021760048036038101906102129190611778565b6114ed565b005b610221611573565b80600260006101000a81548173ffffffffffffffffffffffffffffffffffffffff021916908373ffffffffffffffffffffffffffffffffffffffff16021790555050565b61026d6115fa565b600260009054906101000a900473ffffffffffffffffffffffffffffffffffffffff1673ffffffffffffffffffffffffffffffffffffffff163373ffffffffffffffffffffffffffffffffffffffff16146102fd576040517f08c379a00000000000000000000000000000000000000000000000000000000081526004016102f490611b11565b60405180910390fd5b6000600360008481526020019081526020016000209050600073ffffffffffffffffffffffffffffffffffffffff168160000160009054906101000a900473ffffffffffffffffffffffffffffffffffffffff1673ffffffffffffffffffffffffffffffffffffffff16036103a7576040517f08c379a000000000000000000000000000000000000000000000000000000000815260040161039e90611b7d565b60405180910390fd5b600160038111156103bb576103ba61191e565b5b8160040160009054906101000a900460ff1660038111156103df576103de61191e565b5b1461041f576040517f08c379a000000000000000000000000000000000000000000000000000000000815260040161041690611be9565b60405180910390fd5b8060000160009054906101000a900473ffffffffffffffffffffffffffffffffffffffff1673ffffffffffffffffffffffffffffffffffffffff168273ffffffffffffffffffffffffffffffffffffffff1614806104cc57508060010160009054906101000a900473ffffffffffffffffffffffffffffffffffffffff1673ffffffffffffffffffffffffffffffffffffffff168273ffffffffffffffffffffffffffffffffffffffff16145b61050b576040517f08c379a000000000000000000000000000000000000000000000000000000000815260040161050290611c55565b60405180910390fd5b60006002826002015461051e9190611ca4565b90507f000000000000000000000000000000000000000000000000000000000000000073ffffffffffffffffffffffffffffffffffffffff1663a9059cbb84836040518363ffffffff1660e01b815260040161057b929190611ce6565b6020604051808303816000875af115801561059a573d6000803e3d6000fd5b505050506040513d601f19601f820116820180604052508101906105be9190611d3b565b6105fd576040517f08c379a00000000000000000000000000000000000000000000000000000000081526004016105f490611db4565b60405180910390fd5b60028260040160006101000a81548160ff021916908360038111156106255761062461191e565b5b0217905550837f16cfaad9ef877ffdcfedd9eae2009b4d27454094546f8fab5fbb10129037afc8848360405161065c929190611ce6565b60405180910390a2505061066e611640565b5050565b61067a611573565b600073ffffffffffffffffffffffffffffffffffffffff168373ffffffffffffffffffffffffffffffffffffffff16141580156106e45750600073ffffffffffffffffffffffffffffffffffffffff168273ffffffffffffffffffffffffffffffffffffffff1614155b610723576040517f08c379a000000000000000000000000000000000000000000000000000000000815260040161071a90611e20565b60405180910390fd5b8173ffffffffffffffffffffffffffffffffffffffff168373ffffffffffffffffffffffffffffffffffffffff1603610791576040517f08c379a000000000000000000000000000000000000000000000000000000000815260040161078890611e8c565b60405180910390fd5b600081116107d4576040517f08c379a00000000000000000000000000000000000000000000000000000000081526004016107cb90611ef8565b60405180910390fd5b600073ffffffffffffffffffffffffffffffffffffffff166003600086815260200190815260200160002060000160009054906101000a900473ffffffffffffffffffffffffffffffffffffffff1673ffffffffffffffffffffffffffffffffffffffff1614610879576040517f08c379a000000000000000000000000000000000000000000000000000000000815260040161087090611f64565b60405180910390fd5b6040518060e001604052808473ffffffffffffffffffffffffffffffffffffffff1681526020018373ffffffffffffffffffffffffffffffffffffffff16815260200182815260200160008152602001600060038111156108dd576108dc61191e565b5b8152602001600015158152602001600015158152506003600086815260200190815260200160002060008201518160000160006101000a81548173ffffffffffffffffffffffffffffffffffffffff021916908373ffffffffffffffffffffffffffffffffffffffff16021790555060208201518160010160006101000a81548173ffffffffffffffffffffffffffffffffffffffff021916908373ffffffffffffffffffffffffffffffffffffffff160217905550604082015181600201556060820151816003015560808201518160040160006101000a81548160ff021916908360038111156109d2576109d161191e565b5b021790555060a08201518160040160016101000a81548160ff02191690831515021790555060c08201518160040160026101000a81548160ff021916908315150217905550905050837f4becde1621d018f3c4630cadb81bbd72061cd951ebaab5e8b10d5b2fecfa49ce848484604051610a4e93929190611f84565b60405180910390a250505050565b610a64611573565b610a6e6000611649565b565b610a786115fa565b6000600360008381526020019081526020016000209050600073ffffffffffffffffffffffffffffffffffffffff168160000160009054906101000a900473ffffffffffffffffffffffffffffffffffffffff1673ffffffffffffffffffffffffffffffffffffffff1603610b22576040517f08c379a0000000000000000000000000000000000000000000000000000000008152600401610b1990611b7d565b60405180910390fd5b60016003811115610b3657610b3561191e565b5b8160040160009054906101000a900460ff166003811115610b5a57610b5961191e565b5b14610b9a576040517f08c379a0000000000000000000000000000000000000000000000000000000008152600401610b9190611be9565b60405180910390fd5b620151808160030154610bad9190611fbb565b421015610bef576040517f08c379a0000000000000000000000000000000000000000000000000000000008152600401610be69061203b565b60405180910390fd5b8060040160019054906101000a900460ff1615610d0c577f000000000000000000000000000000000000000000000000000000000000000073ffffffffffffffffffffffffffffffffffffffff1663a9059cbb8260000160009054906101000a900473ffffffffffffffffffffffffffffffffffffffff1683600201546040518363ffffffff1660e01b8152600401610c89929190611ce6565b6020604051808303816000875af1158015610ca8573d6000803e3d6000fd5b505050506040513d601f19601f82011682018060405250810190610ccc9190611d3b565b610d0b576040517f08c379a0000000000000000000000000000000000000000000000000000000008152600401610d0290611db4565b60405180910390fd5b5b8060040160029054906101000a900460ff1615610e29577f000000000000000000000000000000000000000000000000000000000000000073ffffffffffffffffffffffffffffffffffffffff1663a9059cbb8260010160009054906101000a900473ffffffffffffffffffffffffffffffffffffffff1683600201546040518363ffffffff1660e01b8152600401610da6929190611ce6565b6020604051808303816000875af1158015610dc5573d6000803e3d6000fd5b505050506040513d601f19601f82011682018060405250810190610de99190611d3b565b610e28576040517f08c379a0000000000000000000000000000000000000000000000000000000008152600401610e1f90611db4565b60405180910390fd5b5b60038160040160006101000a81548160ff02191690836003811115610e5157610e5061191e565b5b0217905550817f2e0668a62a5f556368dca9c7113e20f2852c05155548243804bf714ce72b25a68260000160009054906101000a900473ffffffffffffffffffffffffffffffffffffffff168360010160009054906101000a900473ffffffffffffffffffffffffffffffffffffffff168460020154604051610ed693929190611f84565b60405180910390a250610ee7611640565b50565b60008060009054906101000a900473ffffffffffffffffffffffffffffffffffffffff16905090565b60036020528060005260406000206000915090508060000160009054906101000a900473ffffffffffffffffffffffffffffffffffffffff16908060010160009054906101000a900473ffffffffffffffffffffffffffffffffffffffff16908060020154908060030154908060040160009054906101000a900460ff16908060040160019054906101000a900460ff16908060040160029054906101000a900460ff16905087565b610fc46115fa565b6000600360008381526020019081526020016000209050600073ffffffffffffffffffffffffffffffffffffffff168160000160009054906101000a900473ffffffffffffffffffffffffffffffffffffffff1673ffffffffffffffffffffffffffffffffffffffff160361106e576040517f08c379a000000000000000000000000000000000000000000000000000000000815260040161106590611b7d565b60405180910390fd5b600060038111156110825761108161191e565b5b8160040160009054906101000a900460ff1660038111156110a6576110a561191e565b5b146110e6576040517f08c379a00000000000000000000000000000000000000000000000000000000081526004016110dd906120a7565b60405180910390fd5b8060000160009054906101000a900473ffffffffffffffffffffffffffffffffffffffff1673ffffffffffffffffffffffffffffffffffffffff163373ffffffffffffffffffffffffffffffffffffffff16148061119357508060010160009054906101000a900473ffffffffffffffffffffffffffffffffffffffff1673ffffffffffffffffffffffffffffffffffffffff163373ffffffffffffffffffffffffffffffffffffffff16145b6111d2576040517f08c379a00000000000000000000000000000000000000000000000000000000081526004016111c990612113565b60405180910390fd5b8060000160009054906101000a900473ffffffffffffffffffffffffffffffffffffffff1673ffffffffffffffffffffffffffffffffffffffff163373ffffffffffffffffffffffffffffffffffffffff160361129d578060040160019054906101000a900460ff161561127b576040517f08c379a00000000000000000000000000000000000000000000000000000000081526004016112729061217f565b60405180910390fd5b60018160040160016101000a81548160ff02191690831515021790555061130d565b8060040160029054906101000a900460ff16156112ef576040517f08c379a00000000000000000000000000000000000000000000000000000000081526004016112e69061217f565b60405180910390fd5b60018160040160026101000a81548160ff0219169083151502179055505b7f000000000000000000000000000000000000000000000000000000000000000073ffffffffffffffffffffffffffffffffffffffff166323b872dd333084600201546040518463ffffffff1660e01b815260040161136e93929190611f84565b6020604051808303816000875af115801561138d573d6000803e3d6000fd5b505050506040513d601f19601f820116820180604052508101906113b19190611d3b565b6113f0576040517f08c379a00000000000000000000000000000000000000000000000000000000081526004016113e790611db4565b60405180910390fd5b817f33569fabfdaac29b9fcc05f7e8d37b389e8b2ba4379fcefefb7a8883d860b45a3360405161142091906118f4565b60405180910390a28060040160019054906101000a900460ff16801561145457508060040160029054906101000a900460ff165b156114905760018160040160006101000a81548160ff021916908360038111156114815761148061191e565b5b02179055504281600301819055505b50611499611640565b50565b7f000000000000000000000000000000000000000000000000000000000000000081565b600260009054906101000a900473ffffffffffffffffffffffffffffffffffffffff1681565b6201518081565b6114f5611573565b600073ffffffffffffffffffffffffffffffffffffffff168173ffffffffffffffffffffffffffffffffffffffff16036115675760006040517f1e4fbdf700000000000000000000000000000000000000000000000000000000815260040161155e91906118f4565b60405180910390fd5b61157081611649565b50565b61157b61170d565b73ffffffffffffffffffffffffffffffffffffffff16611599610eea565b73ffffffffffffffffffffffffffffffffffffffff16146115f8576115bc61170d565b6040517f118cdaa70000000000000000000000000000000000000000000000000000000081526004016115ef91906118f4565b60405180910390fd5b565b600260015403611636576040517f3ee5aeb500000000000000000000000000000000000000000000000000000000815260040160405180910390fd5b6002600181905550565b60018081905550565b60008060009054906101000a900473ffffffffffffffffffffffffffffffffffffffff169050816000806101000a81548173ffffffffffffffffffffffffffffffffffffffff021916908373ffffffffffffffffffffffffffffffffffffffff1602179055508173ffffffffffffffffffffffffffffffffffffffff168173ffffffffffffffffffffffffffffffffffffffff167f8be0079c531659141344cd1fd0a4f28419497f9722a3daafe3b4186f6b6457e060405160405180910390a35050565b600033905090565b600080fd5b600073ffffffffffffffffffffffffffffffffffffffff82169050919050565b60006117458261171a565b9050919050565b6117558161173a565b811461176057600080fd5b50565b6000813590506117728161174c565b92915050565b60006020828403121561178e5761178d611715565b5b600061179c84828501611763565b91505092915050565b6000819050919050565b6117b8816117a5565b81146117c357600080fd5b50565b6000813590506117d5816117af565b92915050565b600080604083850312156117f2576117f1611715565b5b6000611800858286016117c6565b925050602061181185828601611763565b9150509250929050565b6000819050919050565b61182e8161181b565b811461183957600080fd5b50565b60008135905061184b81611825565b92915050565b6000806000806080858703121561186b5761186a611715565b5b6000611879878288016117c6565b945050602061188a87828801611763565b935050604061189b87828801611763565b92505060606118ac8782880161183c565b91505092959194509250565b6000602082840312156118ce576118cd611715565b5b60006118dc848285016117c6565b91505092915050565b6118ee8161173a565b82525050565b600060208201905061190960008301846118e5565b92915050565b6119188161181b565b82525050565b7f4e487b7100000000000000000000000000000000000000000000000000000000600052602160045260246000fd5b6004811061195e5761195d61191e565b5b50565b600081905061196f8261194d565b919050565b600061197f82611961565b9050919050565b61198f81611974565b82525050565b60008115159050919050565b6119aa81611995565b82525050565b600060e0820190506119c5600083018a6118e5565b6119d260208301896118e5565b6119df604083018861190f565b6119ec606083018761190f565b6119f96080830186611986565b611a0660a08301856119a1565b611a1360c08301846119a1565b98975050505050505050565b6000819050919050565b6000611a44611a3f611a3a8461171a565b611a1f565b61171a565b9050919050565b6000611a5682611a29565b9050919050565b6000611a6882611a4b565b9050919050565b611a7881611a5d565b82525050565b6000602082019050611a936000830184611a6f565b92915050565b6000602082019050611aae600083018461190f565b92915050565b600082825260208201905092915050565b7f4f6e6c79206261636b656e642063616e20636f6d6d697420726573756c740000600082015250565b6000611afb601e83611ab4565b9150611b0682611ac5565b602082019050919050565b60006020820190508181036000830152611b2a81611aee565b9050919050565b7f4d6174636820646f6573206e6f74206578697374000000000000000000000000600082015250565b6000611b67601483611ab4565b9150611b7282611b31565b602082019050919050565b60006020820190508181036000830152611b9681611b5a565b9050919050565b7f4d61746368206e6f74207374616b656400000000000000000000000000000000600082015250565b6000611bd3601083611ab4565b9150611bde82611b9d565b602082019050919050565b60006020820190508181036000830152611c0281611bc6565b9050919050565b7f496e76616c69642077696e6e6572000000000000000000000000000000000000600082015250565b6000611c3f600e83611ab4565b9150611c4a82611c09565b602082019050919050565b60006020820190508181036000830152611c6e81611c32565b9050919050565b7f4e487b7100000000000000000000000000000000000000000000000000000000600052601160045260246000fd5b6000611caf8261181b565b9150611cba8361181b565b9250828202611cc88161181b565b91508282048414831517611cdf57611cde611c75565b5b5092915050565b6000604082019050611cfb60008301856118e5565b611d08602083018461190f565b9392505050565b611d1881611995565b8114611d2357600080fd5b50565b600081519050611d3581611d0f565b92915050565b600060208284031215611d5157611d50611715565b5b6000611d5f84828501611d26565b91505092915050565b7f4754207472616e73666572206661696c65640000000000000000000000000000600082015250565b6000611d9e601283611ab4565b9150611da982611d68565b602082019050919050565b60006020820190508181036000830152611dcd81611d91565b9050919050565b7f496e76616c696420616464726573736573000000000000000000000000000000600082015250565b6000611e0a601183611ab4565b9150611e1582611dd4565b602082019050919050565b60006020820190508181036000830152611e3981611dfd565b9050919050565b7f506c6179657273206d75737420626520646966666572656e7400000000000000600082015250565b6000611e76601983611ab4565b9150611e8182611e40565b602082019050919050565b60006020820190508181036000830152611ea581611e69565b9050919050565b7f5374616b65206d7573742062652067726561746572207468616e203000000000600082015250565b6000611ee2601c83611ab4565b9150611eed82611eac565b602082019050919050565b60006020820190508181036000830152611f1181611ed5565b9050919050565b7f4d6174636820616c726561647920657869737473000000000000000000000000600082015250565b6000611f4e601483611ab4565b9150611f5982611f18565b602082019050919050565b60006020820190508181036000830152611f7d81611f41565b9050919050565b6000606082019050611f9960008301866118e5565b611fa660208301856118e5565b611fb3604083018461190f565b949350505050565b6000611fc68261181b565b9150611fd18361181b565b9250828201905080821115611fe957611fe8611c75565b5b92915050565b7f54696d656f7574206e6f74207265616368656400000000000000000000000000600082015250565b6000612025601383611ab4565b915061203082611fef565b602082019050919050565b6000602082019050818103600083015261205481612018565b9050919050565b7f4d61746368206e6f7420696e2070656e64696e67207374617475730000000000600082015250565b6000612091601b83611ab4565b915061209c8261205b565b602082019050919050565b600060208201905081810360008301526120c081612084565b9050919050565b7f4e6f74206120706c617965720000000000000000000000000000000000000000600082015250565b60006120fd600c83611ab4565b9150612108826120c7565b602082019050919050565b6000602082019050818103600083015261212c816120f0565b9050919050565b7f416c7265616479207374616b6564000000000000000000000000000000000000600082015250565b6000612169600e83611ab4565b915061217482612133565b602082019050919050565b600060208201905081810360008301526121988161215c565b905091905056fea26469706673582212203003c27f0f8e02b2029ef4563b641bd51ffb136635707ce00698fc673d20fdc464736f6c63430008140033",
  "linkReferences": {},
  "deployedLinkReferences": {}
}