{
  "_format": "hh-sol-artifact-1",
  "contractName": "TokenStore",
  "sourceName": "contracts/TokenStore.sol",
  "abi": [
    {
      "inputs": [
        {
          "internalType": "address",
          "name": "_usdt",
          "type": "address"
        },
        {
          "internalType": "address",
          "name": "_gameToken",
          "type": "address"
        },
        {
          "internalType": "uint256",
          "name": "_gtPerUsdt",
          "type": "uint256"
        }
      ],
      "stateMutability": "nonpayable",
      "type": "constructor"
    },
    {
      "inputs": [
        {
          "internalType": "address",
          "name": "owner",
          "type": "address"
        }
      ],
      "name": "OwnableInvalidOwner",
      "type": "error"
    },
    {
      "inputs": [
        {
          "internalType": "address",
          "name": "account",
          "type": "address"
        }
      ],
      "name": "OwnableUnauthorizedAccount",
      "type": "error"
    },
    {
      "inputs": [],
      "name": "ReentrancyGuardReentrantCall",
      "type": "error"
    },
    {
      "anonymous": false,
      "inputs": [
        {
          "indexed": true,
          "internalType": "address",
          "name": "previousOwner",
          "type": "address"
        },
        {
          "indexed": true,
          "internalType": "address",
          "name": "newOwner",
          "type": "address"
        }
      ],
      "name": "OwnershipTransferred",
      "type": "event"
    },
    {
      "anonymous": false,
      "inputs": [
        {
          "indexed": true,
          "internalType": "address",
          "name": "buyer",
          "type": "address"
        },
        {
          "indexed": false,
          "internalType": "uint256",
          "name": "usdtAmount",
          "type": "uint256"
        },
        {
          "indexed": false,
          "internalType": "uint256",
          "name": "gtOut",
          "type": "uint256"
        }
      ],
      "name": "Purchase",
      "type": "event"
    },
    {
      "inputs": [
        {
          "internalType": "uint256",
          "name": "usdtAmount",
          "type": "uint256"
        }
      ],
      "name": "buy",
      "outputs": [],
      "stateMutability": "nonpayable",
      "type": "function"
    },
    {
      "inputs": [],
      "name": "gameToken",
      "outputs": [
        {
          "internalType": "contract GameToken",
          "name": "",
          "type": "address"
        }
      ],
      "stateMutability": "view",
      "type": "function"
    },
    {
      "inputs": [],
      "name": "gtPerUsdt",
      "outputs": [
        {
          "internalType": "uint256",
          "name": "",
          "type": "uint256"
        }
      ],
      "stateMutability": "view",
      "type": "function"
    },
    {
      "inputs": [],
      "name": "owner",
      "outputs": [
        {
          "internalType": "address",
          "name": "",
          "type": "address"
        }
      ],
      "stateMutability": "view",
      "type": "function"
    },
    {
      "inputs": [],
      "name": "renounceOwnership",
      "outputs": [],
      "stateMutability": "nonpayable",
      "type": "function"
    },
    {
      "inputs": [
        {
          "internalType": "address",
          "name": "newOwner",
          "type": "address"
        }
      ],
      "name": "transferOwnership",
      "outputs": [],
      "stateMutability": "nonpayable",
      "type": "function"
    },
    {
      "inputs": [],
      "name": "usdt",
      "outputs": [
        {
          "internalType": "contract IERC20",
          "name": "",
          "type": "address"
        }
      ],
      "stateMutability": "view",
      "type": "function"
    },
    {
      "inputs": [
        {
          "internalType": "address",
          "name": "to",
          "type": "address"
        },
        {
          "internalType": "uint256",
          "name": "amount",
          "type": "uint256"
        }
      ],
      "name": "withdrawUSDT",
      "outputs": [],
      "stateMutability": "nonpayable",
      "type": "function"
    }
  ],
  "bytecode": "0x60e06040523480156200001157600080fd5b50604051620011d4380380620011d48339818101604052810190620000379190620002a8565b33600073ffffffffffffffffffffffffffffffffffffffff168173ffffffffffffffffffffffffffffffffffffffff1603620000ad5760006040517f1e4fbdf7000000000000000000000000000000000000000000000000000000008152600401620000a4919062000315565b60405180910390fd5b620000be816200013f60201b60201c565b50600180819055508273ffffffffffffffffffffffffffffffffffffffff1660808173ffffffffffffffffffffffffffffffffffffffff16815250508173ffffffffffffffffffffffffffffffffffffffff1660a08173ffffffffffffffffffffffffffffffffffffffff16815250508060c0818152505050505062000332565b60008060009054906101000a900473ffffffffffffffffffffffffffffffffffffffff169050816000806101000a81548173ffffffffffffffffffffffffffffffffffffffff021916908373ffffffffffffffffffffffffffffffffffffffff1602179055508173ffffffffffffffffffffffffffffffffffffffff168173ffffffffffffffffffffffffffffffffffffffff167f8be0079c531659141344cd1fd0a4f28419497f9722a3daafe3b4186f6b6457e060405160405180910390a35050565b600080fd5b600073ffffffffffffffffffffffffffffffffffffffff82169050919050565b6000620002358262000208565b9050919050565b620002478162000228565b81146200025357600080fd5b50565b60008151905062000267816200023c565b92915050565b6000819050919050565b62000282816200026d565b81146200028e57600080fd5b50565b600081519050620002a28162000277565b92915050565b600080600060608486031215620002c457620002c362000203565b5b6000620002d48682870162000256565b9350506020620002e78682870162000256565b9250506040620002fa8682870162000291565b9150509250925092565b6200030f8162000228565b82525050565b60006020820190506200032c600083018462000304565b92915050565b60805160a05160c051610e566200037e600039600081816103d6015261069f015260008181610361015261053001526000818161021f0152818161030001526104510152610e566000f3fe608060405234801561001057600080fd5b50600436106100885760003560e01c8063c3dfdae61161005b578063c3dfdae6146100ef578063d96a094a1461010d578063f2fde38b14610129578063f5243bfd1461014557610088565b80631481794e1461008d5780632f48ab7d146100a9578063715018a6146100c75780638da5cb5b146100d1575b600080fd5b6100a760048036038101906100a291906108fc565b610163565b005b6100b16102fe565b6040516100be919061099b565b60405180910390f35b6100cf610322565b005b6100d9610336565b6040516100e691906109c5565b60405180910390f35b6100f761035f565b6040516101049190610a01565b60405180910390f35b61012760048036038101906101229190610a1c565b610383565b005b610143600480360381019061013e9190610a49565b610617565b005b61014d61069d565b60405161015a9190610a85565b60405180910390f35b61016b6106c1565b600073ffffffffffffffffffffffffffffffffffffffff168273ffffffffffffffffffffffffffffffffffffffff16036101da576040517f08c379a00000000000000000000000000000000000000000000000000000000081526004016101d190610afd565b60405180910390fd5b6000811161021d576040517f08c379a000000000000000000000000000000000000000000000000000000000815260040161021490610b69565b60405180910390fd5b7f000000000000000000000000000000000000000000000000000000000000000073ffffffffffffffffffffffffffffffffffffffff1663a9059cbb83836040518363ffffffff1660e01b8152600401610278929190610b89565b6020604051808303816000875af1158015610297573d6000803e3d6000fd5b505050506040513d601f19601f820116820180604052508101906102bb9190610bea565b6102fa576040517f08c379a00000000000000000000000000000000000000000000000000000000081526004016102f190610c63565b60405180910390fd5b5050565b7f000000000000000000000000000000000000000000000000000000000000000081565b61032a6106c1565b6103346000610748565b565b60008060009054906101000a900473ffffffffffffffffffffffffffffffffffffffff16905090565b7f000000000000000000000000000000000000000000000000000000000000000081565b61038b61080c565b600081116103ce576040517f08c379a00000000000000000000000000000000000000000000000000000000081526004016103c590610b69565b60405180910390fd5b6000620f42407f0000000000000000000000000000000000000000000000000000000000000000836104009190610cb2565b61040a9190610d23565b90506000811161044f576040517f08c379a000000000000000000000000000000000000000000000000000000000815260040161044690610da0565b60405180910390fd5b7f000000000000000000000000000000000000000000000000000000000000000073ffffffffffffffffffffffffffffffffffffffff166323b872dd3330856040518463ffffffff1660e01b81526004016104ac93929190610dc0565b6020604051808303816000875af11580156104cb573d6000803e3d6000fd5b505050506040513d601f19601f820116820180604052508101906104ef9190610bea565b61052e576040517f08c379a000000000000000000000000000000000000000000000000000000000815260040161052590610c63565b60405180910390fd5b7f000000000000000000000000000000000000000000000000000000000000000073ffffffffffffffffffffffffffffffffffffffff166340c10f1933836040518363ffffffff1660e01b8152600401610589929190610b89565b600060405180830381600087803b1580156105a357600080fd5b505af11580156105b7573d6000803e3d6000fd5b505050503373ffffffffffffffffffffffffffffffffffffffff167f12cb4648cf3058b17ceeb33e579f8b0bc269fe0843f3900b8e24b6c54871703c8383604051610603929190610df7565b60405180910390a250610614610852565b50565b61061f6106c1565b600073ffffffffffffffffffffffffffffffffffffffff168173ffffffffffffffffffffffffffffffffffffffff16036106915760006040517f1e4fbdf700000000000000000000000000000000000000000000000000000000815260040161068891906109c5565b60405180910390fd5b61069a81610748565b50565b7f000000000000000000000000000000000000000000000000000000000000000081565b6106c961085b565b73ffffffffffffffffffffffffffffffffffffffff166106e7610336565b73ffffffffffffffffffffffffffffffffffffffff16146107465761070a61085b565b6040517f118cdaa700000000000000000000000000000000000000000000000000000000815260040161073d91906109c5565b60405180910390fd5b565b60008060009054906101000a900473ffffffffffffffffffffffffffffffffffffffff169050816000806101000a81548173ffffffffffffffffffffffffffffffffffffffff021916908373ffffffffffffffffffffffffffffffffffffffff1602179055508173ffffffffffffffffffffffffffffffffffffffff168173ffffffffffffffffffffffffffffffffffffffff167f8be0079c531659141344cd1fd0a4f28419497f9722a3daafe3b4186f6b6457e060405160405180910390a35050565b600260015403610848576040517f3ee5aeb500000000000000000000000000000000000000000000000000000000815260040160405180910390fd5b6002600181905550565b60018081905550565b600033905090565b600080fd5b600073ffffffffffffffffffffffffffffffffffffffff82169050919050565b600061089382610868565b9050919050565b6108a381610888565b81146108ae57600080fd5b50565b6000813590506108c08161089a565b92915050565b6000819050919050565b6108d9816108c6565b81146108e457600080fd5b50565b6000813590506108f6816108d0565b92915050565b6000806040838503121561091357610912610863565b5b6000610921858286016108b1565b9250506020610932858286016108e7565b9150509250929050565b6000819050919050565b600061096161095c61095784610868565b61093c565b610868565b9050919050565b600061097382610946565b9050919050565b600061098582610968565b9050919050565b6109958161097a565b82525050565b60006020820190506109b0600083018461098c565b92915050565b6109bf81610888565b82525050565b60006020820190506109da60008301846109b6565b92915050565b60006109eb82610968565b9050919050565b6109fb816109e0565b82525050565b6000602082019050610a1660008301846109f2565b92915050565b600060208284031215610a3257610a31610863565b5b6000610a40848285016108e7565b91505092915050565b600060208284031215610a5f57610a5e610863565b5b6000610a6d848285016108b1565b91505092915050565b610a7f816108c6565b82525050565b6000602082019050610a9a6000830184610a76565b92915050565b600082825260208201905092915050565b7f496e76616c696420616464726573730000000000000000000000000000000000600082015250565b6000610ae7600f83610aa0565b9150610af282610ab1565b602082019050919050565b60006020820190508181036000830152610b1681610ada565b9050919050565b7f416d6f756e74206d7573742062652067726561746572207468616e2030000000600082015250565b6000610b53601d83610aa0565b9150610b5e82610b1d565b602082019050919050565b60006020820190508181036000830152610b8281610b46565b9050919050565b6000604082019050610b9e60008301856109b6565b610bab6020830184610a76565b9392505050565b60008115159050919050565b610bc781610bb2565b8114610bd257600080fd5b50565b600081519050610be481610bbe565b92915050565b600060208284031215610c0057610bff610863565b5b6000610c0e84828501610bd5565b91505092915050565b7f55534454207472616e73666572206661696c6564000000000000000000000000600082015250565b6000610c4d601483610aa0565b9150610c5882610c17565b602082019050919050565b60006020820190508181036000830152610c7c81610c40565b9050919050565b7f4e487b7100000000000000000000000000000000000000000000000000000000600052601160045260246000fd5b6000610cbd826108c6565b9150610cc8836108c6565b9250828202610cd6816108c6565b91508282048414831517610ced57610cec610c83565b5b5092915050565b7f4e487b7100000000000000000000000000000000000000000000000000000000600052601260045260246000fd5b6000610d2e826108c6565b9150610d39836108c6565b925082610d4957610d48610cf4565b5b828204905092915050565b7f496e76616c696420636f6e76657273696f6e0000000000000000000000000000600082015250565b6000610d8a601283610aa0565b9150610d9582610d54565b602082019050919050565b60006020820190508181036000830152610db981610d7d565b9050919050565b6000606082019050610dd560008301866109b6565b610de260208301856109b6565b610def6040830184610a76565b949350505050565b6000604082019050610e0c6000830185610a76565b610e196020830184610a76565b939250505056fea26469706673582212209fc6a0af2420772cf95e24bb65a7e0f19c5ce04aab30b423d5a65746ebb81a4264736f6c63430008140033",
  "linkReferences": {},
  "deployedLinkReferences": {}
}